{
  "_format": "hh-sol-artifact-1",
  "contractName": "WavePortal",
  "sourceName": "contracts/WavePortal.sol",
  "abi": [
    {
      "inputs": [],
      "stateMutability": "payable",
      "type": "constructor"
    },
    {
      "anonymous": false,
      "inputs": [
        {
          "indexed": true,
          "internalType": "address",
          "name": "from",
          "type": "address"
        },
        {
          "indexed": false,
          "internalType": "uint256",
          "name": "timestamp",
          "type": "uint256"
        },
        {
          "indexed": false,
          "internalType": "string",
          "name": "message",
          "type": "string"
        }
      ],
      "name": "NewWave",
      "type": "event"
    },
    {
      "anonymous": false,
      "inputs": [
        {
          "indexed": true,
          "internalType": "address",
          "name": "winner",
          "type": "address"
        }
      ],
      "name": "NewWinner",
      "type": "event"
    },
    {
      "inputs": [],
      "name": "getAddresses",
      "outputs": [
        {
          "internalType": "address[]",
          "name": "",
          "type": "address[]"
        }
      ],
      "stateMutability": "view",
      "type": "function"
    },
    {
      "inputs": [],
      "name": "getAllWaves",
      "outputs": [
        {
          "components": [
            {
              "internalType": "address",
              "name": "waver",
              "type": "address"
            },
            {
              "internalType": "string",
              "name": "message",
              "type": "string"
            },
            {
              "internalType": "uint256",
              "name": "timestamp",
              "type": "uint256"
            }
          ],
          "internalType": "struct WavePortal.Wave[]",
          "name": "",
          "type": "tuple[]"
        }
      ],
      "stateMutability": "view",
      "type": "function"
    },
    {
      "inputs": [],
      "name": "getTotalWaves",
      "outputs": [
        {
          "internalType": "uint256",
          "name": "",
          "type": "uint256"
        }
      ],
      "stateMutability": "view",
      "type": "function"
    },
    {
      "inputs": [
        {
          "internalType": "address",
          "name": "",
          "type": "address"
        }
      ],
      "name": "lastWavedAt",
      "outputs": [
        {
          "internalType": "uint256",
          "name": "",
          "type": "uint256"
        }
      ],
      "stateMutability": "view",
      "type": "function"
    },
    {
      "inputs": [
        {
          "internalType": "string",
          "name": "_message",
          "type": "string"
        }
      ],
      "name": "wave",
      "outputs": [],
      "stateMutability": "nonpayable",
      "type": "function"
    }
  ],
  "bytecode": "0x60806040526200003360405180606001604052806022815260200162001817602291396200005b60201b620007e61760201c565b60644442620000439190620001a8565b6200004f919062000245565b600281905550620002ec565b620000fb8160405160240162000072919062000168565b6040516020818303038152906040527f41304fac000000000000000000000000000000000000000000000000000000007bffffffffffffffffffffffffffffffffffffffffffffffffffffffff19166020820180517bffffffffffffffffffffffffffffffffffffffffffffffffffffffff8381831617835250505050620000fe60201b60201c565b50565b60008151905060006a636f6e736f6c652e6c6f679050602083016000808483855afa5050505050565b600062000134826200018c565b62000140818562000197565b9350620001528185602086016200020f565b6200015d81620002db565b840191505092915050565b6000602082019050818103600083015262000184818462000127565b905092915050565b600081519050919050565b600082825260208201905092915050565b6000620001b58262000205565b9150620001c28362000205565b9250827fffffffffffffffffffffffffffffffffffffffffffffffffffffffffffffffff03821115620001fa57620001f96200027d565b5b828201905092915050565b6000819050919050565b60005b838110156200022f57808201518184015260208101905062000212565b838111156200023f576000848401525b50505050565b6000620002528262000205565b91506200025f8362000205565b925082620002725762000271620002ac565b5b828206905092915050565b7f4e487b7100000000000000000000000000000000000000000000000000000000600052601160045260246000fd5b7f4e487b7100000000000000000000000000000000000000000000000000000000600052601260045260246000fd5b6000601f19601f8301169050919050565b61151b80620002fc6000396000f3fe608060405234801561001057600080fd5b50600436106100575760003560e01c8063449d46c01461005c5780639a2cdc0814610078578063a39fac1214610096578063a42a4663146100b4578063bd43a908146100e4575b600080fd5b61007660048036038101906100719190610bc8565b610102565b005b6100806105a4565b60405161008d9190611012565b60405180910390f35b61009e6105ef565b6040516100ab9190610ea7565b60405180910390f35b6100ce60048036038101906100c99190610b9f565b61067d565b6040516100db9190611012565b60405180910390f35b6100ec610695565b6040516100f99190610ec9565b60405180910390f35b42610384600460003373ffffffffffffffffffffffffffffffffffffffff1673ffffffffffffffffffffffffffffffffffffffff16815260200190815260200160002054610150919061115d565b10610190576040517f08c379a000000000000000000000000000000000000000000000000000000000815260040161018790610fb2565b60405180910390fd5b42600460003373ffffffffffffffffffffffffffffffffffffffff1673ffffffffffffffffffffffffffffffffffffffff1681526020019081526020016000208190555060016000808282546101e6919061115d565b925050819055506001339080600181540180825580915050600190039060005260206000200160009091909190916101000a81548173ffffffffffffffffffffffffffffffffffffffff021916908373ffffffffffffffffffffffffffffffffffffffff1602179055506102906040518060400160405280601681526020017f257320776176656420772f206d65737361676520257300000000000000000000815250338361087f565b600360405180606001604052803373ffffffffffffffffffffffffffffffffffffffff16815260200183815260200142815250908060018154018082558091505060019003906000526020600020906003020160009091909190915060008201518160000160006101000a81548173ffffffffffffffffffffffffffffffffffffffff021916908373ffffffffffffffffffffffffffffffffffffffff160217905550602082015181600101908051906020019061034f929190610a7f565b506040820151816002015550506064600254424461036d919061115d565b610377919061115d565b6103819190611294565b6002819055506103c86040518060400160405280601681526020017f52616e646f6d20232067656e6572617465643a2025640000000000000000000081525060025461091e565b601460025411610551576104116040518060400160405280600781526020017f257320776f6e2100000000000000000000000000000000000000000000000000815250336109ba565b6000655af3107a400090504781111561045f576040517f08c379a000000000000000000000000000000000000000000000000000000000815260040161045690610fd2565b60405180910390fd5b60003373ffffffffffffffffffffffffffffffffffffffff168260405161048590610e92565b60006040518083038185875af1925050503d80600081146104c2576040519150601f19603f3d011682016040523d82523d6000602084013e6104c7565b606091505b505090508061050b576040517f08c379a000000000000000000000000000000000000000000000000000000000815260040161050290610ff2565b60405180910390fd5b3373ffffffffffffffffffffffffffffffffffffffff167ffcd0090a8eb426c754f5529cb82a16921d765142042acb46601b8804e85f966d60405160405180910390a250505b3373ffffffffffffffffffffffffffffffffffffffff167f5f7e16dc676677766a70e9c5628aa6c54ddb8b6e5188e2ae1e1f17f1ffbea716428360405161059992919061102d565b60405180910390a250565b60006105e76040518060400160405280601681526020017f5765206861766520256420746f74616c2077617665730000000000000000000081525060005461091e565b600054905090565b6060600180548060200260200160405190810160405280929190818152602001828054801561067357602002820191906000526020600020905b8160009054906101000a900473ffffffffffffffffffffffffffffffffffffffff1673ffffffffffffffffffffffffffffffffffffffff1681526020019060010190808311610629575b5050505050905090565b60046020528060005260406000206000915090505481565b60606003805480602002602001604051908101604052809291908181526020016000905b828210156107dd57838290600052602060002090600302016040518060600160405290816000820160009054906101000a900473ffffffffffffffffffffffffffffffffffffffff1673ffffffffffffffffffffffffffffffffffffffff1673ffffffffffffffffffffffffffffffffffffffff16815260200160018201805461074290611231565b80601f016020809104026020016040519081016040528092919081815260200182805461076e90611231565b80156107bb5780601f10610790576101008083540402835291602001916107bb565b820191906000526020600020905b81548152906001019060200180831161079e57829003601f168201915b50505050508152602001600282015481525050815260200190600101906106b9565b50505050905090565b61087c816040516024016107fa9190610eeb565b6040516020818303038152906040527f41304fac000000000000000000000000000000000000000000000000000000007bffffffffffffffffffffffffffffffffffffffffffffffffffffffff19166020820180517bffffffffffffffffffffffffffffffffffffffffffffffffffffffff8381831617835250505050610a56565b50565b61091983838360405160240161089793929190610f3d565b6040516020818303038152906040527fe0e9ad4f000000000000000000000000000000000000000000000000000000007bffffffffffffffffffffffffffffffffffffffffffffffffffffffff19166020820180517bffffffffffffffffffffffffffffffffffffffffffffffffffffffff8381831617835250505050610a56565b505050565b6109b68282604051602401610934929190610f82565b6040516020818303038152906040527f9710a9d0000000000000000000000000000000000000000000000000000000007bffffffffffffffffffffffffffffffffffffffffffffffffffffffff19166020820180517bffffffffffffffffffffffffffffffffffffffffffffffffffffffff8381831617835250505050610a56565b5050565b610a5282826040516024016109d0929190610f0d565b6040516020818303038152906040527f319af333000000000000000000000000000000000000000000000000000000007bffffffffffffffffffffffffffffffffffffffffffffffffffffffff19166020820180517bffffffffffffffffffffffffffffffffffffffffffffffffffffffff8381831617835250505050610a56565b5050565b60008151905060006a636f6e736f6c652e6c6f679050602083016000808483855afa5050505050565b828054610a8b90611231565b90600052602060002090601f016020900481019282610aad5760008555610af4565b82601f10610ac657805160ff1916838001178555610af4565b82800160010185558215610af4579182015b82811115610af3578251825591602001919060010190610ad8565b5b509050610b019190610b05565b5090565b5b80821115610b1e576000816000905550600101610b06565b5090565b6000610b35610b3084611082565b61105d565b905082815260208101848484011115610b4d57600080fd5b610b588482856111ef565b509392505050565b600081359050610b6f816114ce565b92915050565b600082601f830112610b8657600080fd5b8135610b96848260208601610b22565b91505092915050565b600060208284031215610bb157600080fd5b6000610bbf84828501610b60565b91505092915050565b600060208284031215610bda57600080fd5b600082013567ffffffffffffffff811115610bf457600080fd5b610c0084828501610b75565b91505092915050565b6000610c158383610c35565b60208301905092915050565b6000610c2d8383610e24565b905092915050565b610c3e816111b3565b82525050565b610c4d816111b3565b82525050565b6000610c5e826110d3565b610c68818561110e565b9350610c73836110b3565b8060005b83811015610ca4578151610c8b8882610c09565b9750610c96836110f4565b925050600181019050610c77565b5085935050505092915050565b6000610cbc826110de565b610cc6818561111f565b935083602082028501610cd8856110c3565b8060005b85811015610d145784840389528151610cf58582610c21565b9450610d0083611101565b925060208a01995050600181019050610cdc565b50829750879550505050505092915050565b6000610d31826110e9565b610d3b818561113b565b9350610d4b8185602086016111fe565b610d5481611381565b840191505092915050565b6000610d6a826110e9565b610d74818561114c565b9350610d848185602086016111fe565b610d8d81611381565b840191505092915050565b6000610da5607b8361114c565b9150610db082611392565b608082019050919050565b6000610dc860348361114c565b9150610dd38261142d565b604082019050919050565b6000610deb60278361114c565b9150610df68261147c565b604082019050919050565b6000610e0e600083611130565b9150610e19826114cb565b600082019050919050565b6000606083016000830151610e3c6000860182610c35565b5060208301518482036020860152610e548282610d26565b9150506040830151610e696040860182610e74565b508091505092915050565b610e7d816111e5565b82525050565b610e8c816111e5565b82525050565b6000610e9d82610e01565b9150819050919050565b60006020820190508181036000830152610ec18184610c53565b905092915050565b60006020820190508181036000830152610ee38184610cb1565b905092915050565b60006020820190508181036000830152610f058184610d5f565b905092915050565b60006040820190508181036000830152610f278185610d5f565b9050610f366020830184610c44565b9392505050565b60006060820190508181036000830152610f578186610d5f565b9050610f666020830185610c44565b8181036040830152610f788184610d5f565b9050949350505050565b60006040820190508181036000830152610f9c8185610d5f565b9050610fab6020830184610e83565b9392505050565b60006020820190508181036000830152610fcb81610d98565b9050919050565b60006020820190508181036000830152610feb81610dbb565b9050919050565b6000602082019050818103600083015261100b81610dde565b9050919050565b60006020820190506110276000830184610e83565b92915050565b60006040820190506110426000830185610e83565b81810360208301526110548184610d5f565b90509392505050565b6000611067611078565b90506110738282611263565b919050565b6000604051905090565b600067ffffffffffffffff82111561109d5761109c611352565b5b6110a682611381565b9050602081019050919050565b6000819050602082019050919050565b6000819050602082019050919050565b600081519050919050565b600081519050919050565b600081519050919050565b6000602082019050919050565b6000602082019050919050565b600082825260208201905092915050565b600082825260208201905092915050565b600081905092915050565b600082825260208201905092915050565b600082825260208201905092915050565b6000611168826111e5565b9150611173836111e5565b9250827fffffffffffffffffffffffffffffffffffffffffffffffffffffffffffffffff038211156111a8576111a76112c5565b5b828201905092915050565b60006111be826111c5565b9050919050565b600073ffffffffffffffffffffffffffffffffffffffff82169050919050565b6000819050919050565b82818337600083830152505050565b60005b8381101561121c578082015181840152602081019050611201565b8381111561122b576000848401525b50505050565b6000600282049050600182168061124957607f821691505b6020821081141561125d5761125c611323565b5b50919050565b61126c82611381565b810181811067ffffffffffffffff8211171561128b5761128a611352565b5b80604052505050565b600061129f826111e5565b91506112aa836111e5565b9250826112ba576112b96112f4565b5b828206905092915050565b7f4e487b7100000000000000000000000000000000000000000000000000000000600052601160045260246000fd5b7f4e487b7100000000000000000000000000000000000000000000000000000000600052601260045260246000fd5b7f4e487b7100000000000000000000000000000000000000000000000000000000600052602260045260246000fd5b7f4e487b7100000000000000000000000000000000000000000000000000000000600052604160045260246000fd5b6000601f19601f8301169050919050565b7f4d616861746d612047616e6468692073616964203a2027546f206c6f7365207060008201527f617469656e636520697320746f206c6f73652074686520626174746c65272e2e60208201527f2e20506c656173652077616974203135206d696e206265666f726520746f207360408201527f656e6420616e6f74686572207069656365206f662050656163652e0000000000606082015250565b7f547279696e6720746f207769746864726177206d6f7265206d6f6e657920746860008201527f616e2074686520636f6e7472616374206861732e000000000000000000000000602082015250565b7f4661696c656420746f207769746864726177206d6f6e65792066726f6d20636f60008201527f6e74726163742e00000000000000000000000000000000000000000000000000602082015250565b50565b6114d7816111b3565b81146114e257600080fd5b5056fea26469706673582212201667668f7cfe91fc888d61632cbc078b6a38de7e54e476d0590a54399625835d64736f6c63430008040033486579212049276d206120636f6e747261637420616e642049276d20736d61727421",
  "linkReferences": {},
  "deployedLinkReferences": {}
}